{
  "contractName": "Election",
  "abi": [
    {
      "inputs": [],
      "stateMutability": "nonpayable",
      "type": "constructor"
    },
    {
      "anonymous": false,
      "inputs": [
        {
          "indexed": true,
          "internalType": "uint256",
          "name": "_candidateId",
          "type": "uint256"
        }
      ],
      "name": "votedEvent",
      "type": "event"
    },
    {
      "inputs": [
        {
          "internalType": "uint256",
          "name": "",
          "type": "uint256"
        }
      ],
      "name": "candidates",
      "outputs": [
        {
          "internalType": "uint256",
          "name": "id",
          "type": "uint256"
        },
        {
          "internalType": "string",
          "name": "name",
          "type": "string"
        },
        {
          "internalType": "uint256",
          "name": "voteCount",
          "type": "uint256"
        }
      ],
      "stateMutability": "view",
      "type": "function",
      "constant": true
    },
    {
      "inputs": [],
      "name": "candidatesCount",
      "outputs": [
        {
          "internalType": "uint256",
          "name": "",
          "type": "uint256"
        }
      ],
      "stateMutability": "view",
      "type": "function",
      "constant": true
    },
    {
      "inputs": [
        {
          "internalType": "address",
          "name": "",
          "type": "address"
        }
      ],
      "name": "voters",
      "outputs": [
        {
          "internalType": "bool",
          "name": "",
          "type": "bool"
        }
      ],
      "stateMutability": "view",
      "type": "function",
      "constant": true
    },
    {
      "inputs": [
        {
          "internalType": "uint256",
          "name": "_candidateId",
          "type": "uint256"
        }
      ],
      "name": "vote",
      "outputs": [],
      "stateMutability": "nonpayable",
      "type": "function"
    },
    {
      "inputs": [],
      "name": "getCandidates",
      "outputs": [
        {
          "components": [
            {
              "internalType": "uint256",
              "name": "id",
              "type": "uint256"
            },
            {
              "internalType": "string",
              "name": "name",
              "type": "string"
            },
            {
              "internalType": "uint256",
              "name": "voteCount",
              "type": "uint256"
            }
          ],
          "internalType": "struct Election.Candidate[]",
          "name": "",
          "type": "tuple[]"
        }
      ],
      "stateMutability": "view",
      "type": "function",
      "constant": true
    },
    {
      "inputs": [],
      "name": "getCandidatesCount",
      "outputs": [
        {
          "internalType": "uint256",
          "name": "",
          "type": "uint256"
        }
      ],
      "stateMutability": "view",
      "type": "function",
      "constant": true
    }
  ],
  "bytecode": "0x60806040523480156200001157600080fd5b50620000586040518060400160405280600b81526020017f43616e6469646174652031000000000000000000000000000000000000000000815250620000ea60201b60201c565b6200009e6040518060400160405280600b81526020017f43616e6469646174652032000000000000000000000000000000000000000000815250620000ea60201b60201c565b620000e46040518060400160405280600b81526020017f43616e6469646174652033000000000000000000000000000000000000000000815250620000ea60201b60201c565b6200030c565b60026000815480929190620000ff9062000259565b91905055506040518060600160405280600254815260200182815260200160008152506001600060025481526020019081526020016000206000820151816000015560208201518160010190805190602001906200015f92919062000170565b506040820151816002015590505050565b8280546200017e90620002d6565b90600052602060002090601f016020900481019282620001a25760008555620001ee565b82601f10620001bd57805160ff1916838001178555620001ee565b82800160010185558215620001ee579182015b82811115620001ed578251825591602001919060010190620001d0565b5b509050620001fd919062000201565b5090565b5b808211156200021c57600081600090555060010162000202565b5090565b7f4e487b7100000000000000000000000000000000000000000000000000000000600052601160045260246000fd5b6000819050919050565b600062000266826200024f565b91507fffffffffffffffffffffffffffffffffffffffffffffffffffffffffffffffff8214156200029c576200029b62000220565b5b600182019050919050565b7f4e487b7100000000000000000000000000000000000000000000000000000000600052602260045260246000fd5b60006002820490506001821680620002ef57607f821691505b60208210811415620003065762000305620002a7565b5b50919050565b610a57806200031c6000396000f3fe608060405234801561001057600080fd5b50600436106100625760003560e01c80630121b93f1461006757806306a49fce146100835780632d35a8a2146100a15780633477ee2e146100bf578063a3ec138d146100f1578063bb9aa28f14610121575b600080fd5b610081600480360381019061007c9190610518565b61013f565b005b61008b610263565b60405161009891906106ff565b60405180910390f35b6100a96103d5565b6040516100b69190610730565b60405180910390f35b6100d960048036038101906100d49190610518565b6103db565b6040516100e893929190610795565b60405180910390f35b61010b60048036038101906101069190610831565b61048d565b6040516101189190610879565b60405180910390f35b6101296104ad565b6040516101369190610730565b60405180910390f35b6000803373ffffffffffffffffffffffffffffffffffffffff1673ffffffffffffffffffffffffffffffffffffffff16815260200190815260200160002060009054906101000a900460ff161561019557600080fd5b6000811180156101a757506002548111155b6101b057600080fd5b60016000803373ffffffffffffffffffffffffffffffffffffffff1673ffffffffffffffffffffffffffffffffffffffff16815260200190815260200160002060006101000a81548160ff02191690831515021790555060016000828152602001908152602001600020600201600081548092919061022e906108c3565b9190505550807ffff3c900d938d21d0990d786e819f29b8d05c1ef587b462b939609625b684b1660405160405180910390a250565b6060600060025467ffffffffffffffff8111156102835761028261090c565b5b6040519080825280602002602001820160405280156102bc57816020015b6102a96104bc565b8152602001906001900390816102a15790505b50905060005b6002548110156103cd57600160006001836102dd919061093b565b815260200190815260200160002060405180606001604052908160008201548152602001600182018054610310906109c0565b80601f016020809104026020016040519081016040528092919081815260200182805461033c906109c0565b80156103895780601f1061035e57610100808354040283529160200191610389565b820191906000526020600020905b81548152906001019060200180831161036c57829003601f168201915b505050505081526020016002820154815250508282815181106103af576103ae6109f2565b5b602002602001018190525080806103c5906108c3565b9150506102c2565b508091505090565b60025481565b6001602052806000526040600020600091509050806000015490806001018054610404906109c0565b80601f0160208091040260200160405190810160405280929190818152602001828054610430906109c0565b801561047d5780601f106104525761010080835404028352916020019161047d565b820191906000526020600020905b81548152906001019060200180831161046057829003601f168201915b5050505050908060020154905083565b60006020528060005260406000206000915054906101000a900460ff1681565b60008060025490508091505090565b60405180606001604052806000815260200160608152602001600081525090565b600080fd5b6000819050919050565b6104f5816104e2565b811461050057600080fd5b50565b600081359050610512816104ec565b92915050565b60006020828403121561052e5761052d6104dd565b5b600061053c84828501610503565b91505092915050565b600081519050919050565b600082825260208201905092915050565b6000819050602082019050919050565b61057a816104e2565b82525050565b600081519050919050565b600082825260208201905092915050565b60005b838110156105ba57808201518184015260208101905061059f565b838111156105c9576000848401525b50505050565b6000601f19601f8301169050919050565b60006105eb82610580565b6105f5818561058b565b935061060581856020860161059c565b61060e816105cf565b840191505092915050565b60006060830160008301516106316000860182610571565b506020830151848203602086015261064982826105e0565b915050604083015161065e6040860182610571565b508091505092915050565b60006106758383610619565b905092915050565b6000602082019050919050565b600061069582610545565b61069f8185610550565b9350836020820285016106b185610561565b8060005b858110156106ed57848403895281516106ce8582610669565b94506106d98361067d565b925060208a019950506001810190506106b5565b50829750879550505050505092915050565b60006020820190508181036000830152610719818461068a565b905092915050565b61072a816104e2565b82525050565b60006020820190506107456000830184610721565b92915050565b600082825260208201905092915050565b600061076782610580565b610771818561074b565b935061078181856020860161059c565b61078a816105cf565b840191505092915050565b60006060820190506107aa6000830186610721565b81810360208301526107bc818561075c565b90506107cb6040830184610721565b949350505050565b600073ffffffffffffffffffffffffffffffffffffffff82169050919050565b60006107fe826107d3565b9050919050565b61080e816107f3565b811461081957600080fd5b50565b60008135905061082b81610805565b92915050565b600060208284031215610847576108466104dd565b5b60006108558482850161081c565b91505092915050565b60008115159050919050565b6108738161085e565b82525050565b600060208201905061088e600083018461086a565b92915050565b7f4e487b7100000000000000000000000000000000000000000000000000000000600052601160045260246000fd5b60006108ce826104e2565b91507fffffffffffffffffffffffffffffffffffffffffffffffffffffffffffffffff82141561090157610900610894565b5b600182019050919050565b7f4e487b7100000000000000000000000000000000000000000000000000000000600052604160045260246000fd5b6000610946826104e2565b9150610951836104e2565b9250827fffffffffffffffffffffffffffffffffffffffffffffffffffffffffffffffff0382111561098657610985610894565b5b828201905092915050565b7f4e487b7100000000000000000000000000000000000000000000000000000000600052602260045260246000fd5b600060028204905060018216806109d857607f821691505b602082108114156109ec576109eb610991565b5b50919050565b7f4e487b7100000000000000000000000000000000000000000000000000000000600052603260045260246000fdfea2646970667358221220848f74b6899098459d2c52b5ef63f9be032613aa5601c118212051d405f3140164736f6c634300080b0033",
  "immutableReferences": {},
  "source": "// SPDX-License-Identifier: MIT\npragma solidity 0.8.11;\n\ncontract Election {\n    // Model a Candidate\n    struct Candidate {\n        uint256 id;\n        string name;\n        uint256 voteCount;\n    }\n\n    // Store accounts that have voted\n    mapping(address => bool) public voters;\n    // Store Candidates\n    // Fetch Candidate\n    mapping(uint256 => Candidate) public candidates;\n    // Store Candidates Count\n    uint256 public candidatesCount;\n\n    // voted event\n    event votedEvent(uint256 indexed _candidateId);\n\n    constructor() {\n        addCandidate(\"Candidate 1\");\n        addCandidate(\"Candidate 2\");\n        addCandidate(\"Candidate 3\");\n    }\n\n    function addCandidate(string memory _name) private {\n        candidatesCount++;\n        candidates[candidatesCount] = Candidate(candidatesCount, _name, 0);\n    }\n\n    function vote(uint256 _candidateId) public {\n        // require that they haven't voted before\n        require(!voters[msg.sender]);\n\n        // require a valid candidate\n        require(_candidateId > 0 && _candidateId <= candidatesCount);\n\n        // record that voter has voted\n        voters[msg.sender] = true;\n\n        // update candidate vote Count\n        candidates[_candidateId].voteCount++;\n\n        // trigger voted event\n        emit votedEvent(_candidateId);\n    }\n\n    function getCandidates() public view returns (Candidate[] memory) {\n        Candidate[] memory ret = new Candidate[](candidatesCount);\n        for (uint256 i = 0; i < candidatesCount; i++) {\n            ret[i] = candidates[i+1];\n        }\n        return ret;\n    }\n\n    function getCandidatesCount() public view returns (uint256) {\n        uint256 ret = candidatesCount;\n        return ret;\n    }\n}\n",
  "sourcePath": "E:\\Capstone\\e-voting-eth-vue2\\contracts\\Election.sol",
  "compiler": {
    "name": "solc",
    "version": "0.8.11+commit.d7f03943.Emscripten.clang"
  },
  "schemaVersion": "3.4.4",
  "updatedAt": "2021-12-21T23:38:25.481Z",
  "networkType": "ethereum",
  "devdoc": {
    "kind": "dev",
    "methods": {},
    "version": 1
  },
  "userdoc": {
    "kind": "user",
    "methods": {},
    "version": 1
  }
}