{
  "contractName": "Election",
  "abi": [
    {
      "inputs": [],
      "stateMutability": "nonpayable",
      "type": "constructor"
    },
    {
      "anonymous": false,
      "inputs": [
        {
          "indexed": true,
          "internalType": "uint256",
          "name": "_candidateId",
          "type": "uint256"
        }
      ],
      "name": "votedEvent",
      "type": "event"
    },
    {
      "inputs": [
        {
          "internalType": "uint256",
          "name": "",
          "type": "uint256"
        }
      ],
      "name": "candidates",
      "outputs": [
        {
          "internalType": "uint256",
          "name": "id",
          "type": "uint256"
        },
        {
          "internalType": "string",
          "name": "name",
          "type": "string"
        },
        {
          "internalType": "uint256",
          "name": "voteCount",
          "type": "uint256"
        },
        {
          "internalType": "string",
          "name": "image",
          "type": "string"
        }
      ],
      "stateMutability": "view",
      "type": "function",
      "constant": true
    },
    {
      "inputs": [],
      "name": "candidatesCount",
      "outputs": [
        {
          "internalType": "uint256",
          "name": "",
          "type": "uint256"
        }
      ],
      "stateMutability": "view",
      "type": "function",
      "constant": true
    },
    {
      "inputs": [
        {
          "internalType": "uint256",
          "name": "",
          "type": "uint256"
        }
      ],
      "name": "voters",
      "outputs": [
        {
          "internalType": "bool",
          "name": "",
          "type": "bool"
        }
      ],
      "stateMutability": "view",
      "type": "function",
      "constant": true
    },
    {
      "inputs": [
        {
          "internalType": "uint256",
          "name": "_candidateId",
          "type": "uint256"
        },
        {
          "internalType": "uint256",
          "name": "_voterId",
          "type": "uint256"
        }
      ],
      "name": "vote",
      "outputs": [],
      "stateMutability": "nonpayable",
      "type": "function"
    },
    {
      "inputs": [],
      "name": "getCandidates",
      "outputs": [
        {
          "components": [
            {
              "internalType": "uint256",
              "name": "id",
              "type": "uint256"
            },
            {
              "internalType": "string",
              "name": "name",
              "type": "string"
            },
            {
              "internalType": "uint256",
              "name": "voteCount",
              "type": "uint256"
            },
            {
              "internalType": "string",
              "name": "image",
              "type": "string"
            }
          ],
          "internalType": "struct Election.Candidate[]",
          "name": "",
          "type": "tuple[]"
        }
      ],
      "stateMutability": "view",
      "type": "function",
      "constant": true
    },
    {
      "inputs": [],
      "name": "getCandidatesCount",
      "outputs": [
        {
          "internalType": "uint256",
          "name": "",
          "type": "uint256"
        }
      ],
      "stateMutability": "view",
      "type": "function",
      "constant": true
    }
  ],
  "bytecode": "0x60806040523480156200001157600080fd5b50620000726040518060400160405280600981526020017f4d63446f6e616c6473000000000000000000000000000000000000000000000081525060405180608001604052806043815260200162000e9c604391396200013860201b60201c565b620000d26040518060400160405280600381526020017f4b4643000000000000000000000000000000000000000000000000000000000081525060405180608001604052806052815260200162000edf605291396200013860201b60201c565b620001326040518060400160405280600b81526020017f427572676572204b696e6700000000000000000000000000000000000000000081525060405180608001604052806047815260200162000f31604791396200013860201b60201c565b62000380565b600260008154809291906200014d90620002cd565b9190505550604051806080016040528060025481526020018381526020016000815260200182815250600160006002548152602001908152602001600020600082015181600001556020820151816001019080519060200190620001b3929190620001e4565b50604082015181600201556060820151816003019080519060200190620001dc929190620001e4565b509050505050565b828054620001f2906200034a565b90600052602060002090601f01602090048101928262000216576000855562000262565b82601f106200023157805160ff191683800117855562000262565b8280016001018555821562000262579182015b828111156200026157825182559160200191906001019062000244565b5b50905062000271919062000275565b5090565b5b808211156200029057600081600090555060010162000276565b5090565b7f4e487b7100000000000000000000000000000000000000000000000000000000600052601160045260246000fd5b6000819050919050565b6000620002da82620002c3565b91507fffffffffffffffffffffffffffffffffffffffffffffffffffffffffffffffff82141562000310576200030f62000294565b5b600182019050919050565b7f4e487b7100000000000000000000000000000000000000000000000000000000600052602260045260246000fd5b600060028204905060018216806200036357607f821691505b602082108114156200037a57620003796200031b565b5b50919050565b610b0c80620003906000396000f3fe608060405234801561001057600080fd5b50600436106100625760003560e01c806306a49fce146100675780632d35a8a2146100855780633477ee2e146100a3578063b384abef146100d6578063bb9aa28f146100f2578063da58c7d914610110575b600080fd5b61006f610140565b60405161007c919061078c565b60405180910390f35b61008d610344565b60405161009a91906107bd565b60405180910390f35b6100bd60048036038101906100b89190610809565b61034a565b6040516100cd9493929190610880565b60405180910390f35b6100f060048036038101906100eb91906108d3565b61048a565b005b6100fa610557565b60405161010791906107bd565b60405180910390f35b61012a60048036038101906101259190610809565b610566565b604051610137919061092e565b60405180910390f35b6060600060025467ffffffffffffffff8111156101605761015f610949565b5b60405190808252806020026020018201604052801561019957816020015b610186610586565b81526020019060019003908161017e5790505b50905060005b60025481101561033c57600160006001836101ba91906109a7565b8152602001908152602001600020604051806080016040529081600082015481526020016001820180546101ed90610a2c565b80601f016020809104026020016040519081016040528092919081815260200182805461021990610a2c565b80156102665780601f1061023b57610100808354040283529160200191610266565b820191906000526020600020905b81548152906001019060200180831161024957829003601f168201915b505050505081526020016002820154815260200160038201805461028990610a2c565b80601f01602080910402602001604051908101604052809291908181526020018280546102b590610a2c565b80156103025780601f106102d757610100808354040283529160200191610302565b820191906000526020600020905b8154815290600101906020018083116102e557829003601f168201915b50505050508152505082828151811061031e5761031d610a5e565b5b6020026020010181905250808061033490610a8d565b91505061019f565b508091505090565b60025481565b600160205280600052604060002060009150905080600001549080600101805461037390610a2c565b80601f016020809104026020016040519081016040528092919081815260200182805461039f90610a2c565b80156103ec5780601f106103c1576101008083540402835291602001916103ec565b820191906000526020600020905b8154815290600101906020018083116103cf57829003601f168201915b50505050509080600201549080600301805461040790610a2c565b80601f016020809104026020016040519081016040528092919081815260200182805461043390610a2c565b80156104805780601f1061045557610100808354040283529160200191610480565b820191906000526020600020905b81548152906001019060200180831161046357829003601f168201915b5050505050905084565b60008082815260200190815260200160002060009054906101000a900460ff16156104b457600080fd5b6000821180156104c657506002548211155b6104cf57600080fd5b600160008083815260200190815260200160002060006101000a81548160ff02191690831515021790555060016000838152602001908152602001600020600201600081548092919061052190610a8d565b9190505550817ffff3c900d938d21d0990d786e819f29b8d05c1ef587b462b939609625b684b1660405160405180910390a25050565b60008060025490508091505090565b60006020528060005260406000206000915054906101000a900460ff1681565b6040518060800160405280600081526020016060815260200160008152602001606081525090565b600081519050919050565b600082825260208201905092915050565b6000819050602082019050919050565b6000819050919050565b6105ed816105da565b82525050565b600081519050919050565b600082825260208201905092915050565b60005b8381101561062d578082015181840152602081019050610612565b8381111561063c576000848401525b50505050565b6000601f19601f8301169050919050565b600061065e826105f3565b61066881856105fe565b935061067881856020860161060f565b61068181610642565b840191505092915050565b60006080830160008301516106a460008601826105e4565b50602083015184820360208601526106bc8282610653565b91505060408301516106d160408601826105e4565b50606083015184820360608601526106e98282610653565b9150508091505092915050565b6000610702838361068c565b905092915050565b6000602082019050919050565b6000610722826105ae565b61072c81856105b9565b93508360208202850161073e856105ca565b8060005b8581101561077a578484038952815161075b85826106f6565b94506107668361070a565b925060208a01995050600181019050610742565b50829750879550505050505092915050565b600060208201905081810360008301526107a68184610717565b905092915050565b6107b7816105da565b82525050565b60006020820190506107d260008301846107ae565b92915050565b600080fd5b6107e6816105da565b81146107f157600080fd5b50565b600081359050610803816107dd565b92915050565b60006020828403121561081f5761081e6107d8565b5b600061082d848285016107f4565b91505092915050565b600082825260208201905092915050565b6000610852826105f3565b61085c8185610836565b935061086c81856020860161060f565b61087581610642565b840191505092915050565b600060808201905061089560008301876107ae565b81810360208301526108a78186610847565b90506108b660408301856107ae565b81810360608301526108c88184610847565b905095945050505050565b600080604083850312156108ea576108e96107d8565b5b60006108f8858286016107f4565b9250506020610909858286016107f4565b9150509250929050565b60008115159050919050565b61092881610913565b82525050565b6000602082019050610943600083018461091f565b92915050565b7f4e487b7100000000000000000000000000000000000000000000000000000000600052604160045260246000fd5b7f4e487b7100000000000000000000000000000000000000000000000000000000600052601160045260246000fd5b60006109b2826105da565b91506109bd836105da565b9250827fffffffffffffffffffffffffffffffffffffffffffffffffffffffffffffffff038211156109f2576109f1610978565b5b828201905092915050565b7f4e487b7100000000000000000000000000000000000000000000000000000000600052602260045260246000fd5b60006002820490506001821680610a4457607f821691505b60208210811415610a5857610a576109fd565b5b50919050565b7f4e487b7100000000000000000000000000000000000000000000000000000000600052603260045260246000fd5b6000610a98826105da565b91507fffffffffffffffffffffffffffffffffffffffffffffffffffffffffffffffff821415610acb57610aca610978565b5b60018201905091905056fea2646970667358221220369909c8eae4ae0b4338feb17c3129b6deba5dcf4cc0a42e7486388dbc9be71b64736f6c634300080b003368747470733a2f2f6c617373656e636f666169722e66696c65732e776f726470726573732e636f6d2f323031362f30372f6d63646f6e616c64732d6c6f676f2e706e6768747470733a2f2f696d6167652e73696d696c6172706e672e636f6d2f766572792d7468756d626e61696c2f323032302f30362f6b66632d6c6f676f2d667265652d646f776e6c6f61642d504e472e706e6768747470733a2f2f6c6f676f77696b2e636f6d2f636f6e74656e742f75706c6f6164732f696d616765732f6275726765722d6b696e672d6e65772d32303231383338392e6a7067",
  "immutableReferences": {},
  "source": "// SPDX-License-Identifier: MIT\r\npragma solidity 0.8.11;\r\n\r\ncontract Election {\r\n    // Model a Candidate\r\n    struct Candidate {\r\n        uint256 id;\r\n        string name;\r\n        uint256 voteCount;\r\n        string image;\r\n    }\r\n\r\n\r\n\r\n    // Store accounts that have voted\r\n    mapping(uint256 => bool) public voters;\r\n    // Store Candidates\r\n    // Fetch Candidate\r\n    mapping(uint256 => Candidate) public candidates;\r\n    // Store Candidates Count\r\n    uint256 public candidatesCount;\r\n\r\n    // voted event\r\n    event votedEvent(uint256 indexed _candidateId);\r\n\r\n    constructor() {\r\n        addCandidate(\"McDonalds\", \"https://lassencofair.files.wordpress.com/2016/07/mcdonalds-logo.png\");\r\n        addCandidate(\"KFC\", \"https://image.similarpng.com/very-thumbnail/2020/06/kfc-logo-free-download-PNG.png\");\r\n        addCandidate(\"Burger King\", \"https://logowik.com/content/uploads/images/burger-king-new-20218389.jpg\");\r\n    }\r\n\r\n    function addCandidate(string memory _name, string memory _image) private {\r\n        candidatesCount++;\r\n        candidates[candidatesCount] = Candidate(candidatesCount, _name, 0, _image);\r\n    }\r\n\r\n    function vote(uint256 _candidateId, uint256 _voterId) public {\r\n        // require that they haven't voted before\r\n        require(!voters[_voterId]);\r\n\r\n        // require a valid candidate\r\n        require(_candidateId > 0 && _candidateId <= candidatesCount);\r\n\r\n        // record that voter has voted\r\n        voters[_voterId] = true;\r\n\r\n        // update candidate vote Count\r\n        candidates[_candidateId].voteCount++;\r\n\r\n        // trigger voted event\r\n        emit votedEvent(_candidateId);\r\n    }\r\n\r\n    function getCandidates() public view returns (Candidate[] memory) {\r\n        Candidate[] memory ret = new Candidate[](candidatesCount);\r\n        for (uint256 i = 0; i < candidatesCount; i++) {\r\n            ret[i] = candidates[i+1];\r\n        }\r\n        return ret;\r\n    }\r\n\r\n    function getCandidatesCount() public view returns (uint256) {\r\n        uint256 ret = candidatesCount;\r\n        return ret;\r\n    }\r\n}\r\n",
  "sourcePath": "E:\\Capstone\\e-voting-eth-vue2\\contracts\\Election.sol",
  "compiler": {
    "name": "solc",
    "version": "0.8.11+commit.d7f03943.Emscripten.clang"
  },
  "schemaVersion": "3.4.4",
  "updatedAt": "2022-01-19T08:17:42.012Z",
  "networkType": "ethereum",
  "devdoc": {
    "kind": "dev",
    "methods": {},
    "version": 1
  },
  "userdoc": {
    "kind": "user",
    "methods": {},
    "version": 1
  }
}