{
  "contractName": "Election",
  "abi": [
    {
      "inputs": [],
      "stateMutability": "nonpayable",
      "type": "constructor"
    },
    {
      "anonymous": false,
      "inputs": [
        {
          "indexed": true,
          "internalType": "uint256",
          "name": "_candidateId",
          "type": "uint256"
        }
      ],
      "name": "votedEvent",
      "type": "event"
    },
    {
      "inputs": [
        {
          "internalType": "uint256",
          "name": "",
          "type": "uint256"
        }
      ],
      "name": "candidates",
      "outputs": [
        {
          "internalType": "uint256",
          "name": "id",
          "type": "uint256"
        },
        {
          "internalType": "string",
          "name": "name",
          "type": "string"
        },
        {
          "internalType": "uint256",
          "name": "voteCount",
          "type": "uint256"
        },
        {
          "internalType": "string",
          "name": "image",
          "type": "string"
        }
      ],
      "stateMutability": "view",
      "type": "function",
      "constant": true
    },
    {
      "inputs": [],
      "name": "candidatesCount",
      "outputs": [
        {
          "internalType": "uint256",
          "name": "",
          "type": "uint256"
        }
      ],
      "stateMutability": "view",
      "type": "function",
      "constant": true
    },
    {
      "inputs": [
        {
          "internalType": "uint256",
          "name": "",
          "type": "uint256"
        }
      ],
      "name": "voters",
      "outputs": [
        {
          "internalType": "bool",
          "name": "",
          "type": "bool"
        }
      ],
      "stateMutability": "view",
      "type": "function",
      "constant": true
    },
    {
      "inputs": [
        {
          "internalType": "string",
          "name": "_name",
          "type": "string"
        },
        {
          "internalType": "string",
          "name": "_image",
          "type": "string"
        }
      ],
      "name": "addCandidate",
      "outputs": [],
      "stateMutability": "nonpayable",
      "type": "function"
    },
    {
      "inputs": [
        {
          "internalType": "string",
          "name": "_admin",
          "type": "string"
        },
        {
          "internalType": "string",
          "name": "_password",
          "type": "string"
        }
      ],
      "name": "isAdmin",
      "outputs": [],
      "stateMutability": "view",
      "type": "function",
      "constant": true
    },
    {
      "inputs": [
        {
          "internalType": "uint256",
          "name": "_id",
          "type": "uint256"
        }
      ],
      "name": "deleteCandidate",
      "outputs": [],
      "stateMutability": "nonpayable",
      "type": "function"
    },
    {
      "inputs": [
        {
          "internalType": "uint256",
          "name": "_candidateId",
          "type": "uint256"
        },
        {
          "internalType": "uint256",
          "name": "_voterId",
          "type": "uint256"
        }
      ],
      "name": "vote",
      "outputs": [],
      "stateMutability": "nonpayable",
      "type": "function"
    },
    {
      "inputs": [],
      "name": "getCandidates",
      "outputs": [
        {
          "components": [
            {
              "internalType": "uint256",
              "name": "id",
              "type": "uint256"
            },
            {
              "internalType": "string",
              "name": "name",
              "type": "string"
            },
            {
              "internalType": "uint256",
              "name": "voteCount",
              "type": "uint256"
            },
            {
              "internalType": "string",
              "name": "image",
              "type": "string"
            }
          ],
          "internalType": "struct Election.Candidate[]",
          "name": "",
          "type": "tuple[]"
        }
      ],
      "stateMutability": "view",
      "type": "function",
      "constant": true
    },
    {
      "inputs": [],
      "name": "getCandidatesCount",
      "outputs": [
        {
          "internalType": "uint256",
          "name": "",
          "type": "uint256"
        }
      ],
      "stateMutability": "view",
      "type": "function",
      "constant": true
    }
  ],
  "bytecode": "0x60806040526040518060400160405280600581526020017f41646d696e000000000000000000000000000000000000000000000000000000815250600090805190602001906200005192919062000280565b506040518060400160405280600481526020017f3030303000000000000000000000000000000000000000000000000000000000815250600190805190602001906200009f92919062000280565b50348015620000ad57600080fd5b506200010e6040518060400160405280600981526020017f4d63446f6e616c647300000000000000000000000000000000000000000000008152506040518060800160405280604381526020016200156260439139620001d460201b60201c565b6200016e6040518060400160405280600381526020017f4b46430000000000000000000000000000000000000000000000000000000000815250604051806080016040528060528152602001620015a560529139620001d460201b60201c565b620001ce6040518060400160405280600b81526020017f427572676572204b696e67000000000000000000000000000000000000000000815250604051806080016040528060478152602001620015f760479139620001d460201b60201c565b6200041c565b60046000815480929190620001e99062000369565b91905055506040518060800160405280600454815260200183815260200160008152602001828152506003600060045481526020019081526020016000206000820151816000015560208201518160010190805190602001906200024f92919062000280565b506040820151816002015560608201518160030190805190602001906200027892919062000280565b509050505050565b8280546200028e90620003e6565b90600052602060002090601f016020900481019282620002b25760008555620002fe565b82601f10620002cd57805160ff1916838001178555620002fe565b82800160010185558215620002fe579182015b82811115620002fd578251825591602001919060010190620002e0565b5b5090506200030d919062000311565b5090565b5b808211156200032c57600081600090555060010162000312565b5090565b7f4e487b7100000000000000000000000000000000000000000000000000000000600052601160045260246000fd5b6000819050919050565b600062000376826200035f565b91507fffffffffffffffffffffffffffffffffffffffffffffffffffffffffffffffff821415620003ac57620003ab62000330565b5b600182019050919050565b7f4e487b7100000000000000000000000000000000000000000000000000000000600052602260045260246000fd5b60006002820490506001821680620003ff57607f821691505b60208210811415620004165762000415620003b7565b5b50919050565b611136806200042c6000396000f3fe608060405234801561001057600080fd5b50600436106100935760003560e01c80633477ee2e116100665780633477ee2e1461010c578063479e8f8e1461013f578063b384abef1461015b578063bb9aa28f14610177578063da58c7d91461019557610093565b806306a49fce146100985780631e620cd4146100b657806326541b56146100d25780632d35a8a2146100ee575b600080fd5b6100a06101c5565b6040516100ad9190610c29565b60405180910390f35b6100d060048036038101906100cb9190610c8b565b6103c9565b005b6100ec60048036038101906100e79190610ded565b610435565b005b6100f66104db565b6040516101039190610e74565b60405180910390f35b61012660048036038101906101219190610c8b565b6104e1565b6040516101369493929190610ed9565b60405180910390f35b61015960048036038101906101549190610ded565b610621565b005b61017560048036038101906101709190610f2c565b61075e565b005b61017f61082d565b60405161018c9190610e74565b60405180910390f35b6101af60048036038101906101aa9190610c8b565b61083c565b6040516101bc9190610f87565b60405180910390f35b6060600060045467ffffffffffffffff8111156101e5576101e4610cc2565b5b60405190808252806020026020018201604052801561021e57816020015b61020b610940565b8152602001906001900390816102035790505b50905060005b6004548110156103c1576003600060018361023f9190610fd1565b81526020019081526020016000206040518060800160405290816000820154815260200160018201805461027290611056565b80601f016020809104026020016040519081016040528092919081815260200182805461029e90611056565b80156102eb5780601f106102c0576101008083540402835291602001916102eb565b820191906000526020600020905b8154815290600101906020018083116102ce57829003601f168201915b505050505081526020016002820154815260200160038201805461030e90611056565b80601f016020809104026020016040519081016040528092919081815260200182805461033a90611056565b80156103875780601f1061035c57610100808354040283529160200191610387565b820191906000526020600020905b81548152906001019060200180831161036a57829003601f168201915b5050505050815250508282815181106103a3576103a2611088565b5b602002602001018190525080806103b9906110b7565b915050610224565b508091505090565b60006003600083815260200190815260200160002060020154146103ec57600080fd5b600360008281526020019081526020016000206000808201600090556001820160006104189190610968565b60028201600090556003820160006104309190610968565b505050565b60046000815480929190610448906110b7565b91905055506040518060800160405280600454815260200183815260200160008152602001828152506003600060045481526020019081526020016000206000820151816000015560208201518160010190805190602001906104ac9291906109a8565b506040820151816002015560608201518160030190805190602001906104d39291906109a8565b509050505050565b60045481565b600360205280600052604060002060009150905080600001549080600101805461050a90611056565b80601f016020809104026020016040519081016040528092919081815260200182805461053690611056565b80156105835780601f1061055857610100808354040283529160200191610583565b820191906000526020600020905b81548152906001019060200180831161056657829003601f168201915b50505050509080600201549080600301805461059e90611056565b80601f01602080910402602001604051908101604052809291908181526020018280546105ca90611056565b80156106175780601f106105ec57610100808354040283529160200191610617565b820191906000526020600020905b8154815290600101906020018083116105fa57829003601f168201915b5050505050905084565b6106b5826000805461063290611056565b80601f016020809104026020016040519081016040528092919081815260200182805461065e90611056565b80156106ab5780601f10610680576101008083540402835291602001916106ab565b820191906000526020600020905b81548152906001019060200180831161068e57829003601f168201915b505050505061085c565b8015610751575061075081600180546106cd90611056565b80601f01602080910402602001604051908101604052809291908181526020018280546106f990611056565b80156107465780601f1061071b57610100808354040283529160200191610746565b820191906000526020600020905b81548152906001019060200180831161072957829003601f168201915b505050505061085c565b5b61075a57600080fd5b5050565b6002600082815260200190815260200160002060009054906101000a900460ff161561078957600080fd5b60008211801561079b57506004548211155b6107a457600080fd5b60016002600083815260200190815260200160002060006101000a81548160ff0219169083151502179055506003600083815260200190815260200160002060020160008154809291906107f7906110b7565b9190505550817ffff3c900d938d21d0990d786e819f29b8d05c1ef587b462b939609625b684b1660405160405180910390a25050565b60008060045490508091505090565b60026020528060005260406000206000915054906101000a900460ff1681565b600080839050600083905060008251905081518114610881576000935050505061093a565b60005b818110156109315782818151811061089f5761089e611088565b5b602001015160f81c60f81b7effffffffffffffffffffffffffffffffffffffffffffffffffffffffffffff19168482815181106108df576108de611088565b5b602001015160f81c60f81b7effffffffffffffffffffffffffffffffffffffffffffffffffffffffffffff19161461091e57600094505050505061093a565b8080610929906110b7565b915050610884565b50600193505050505b92915050565b6040518060800160405280600081526020016060815260200160008152602001606081525090565b50805461097490611056565b6000825580601f1061098657506109a5565b601f0160209004906000526020600020908101906109a49190610a2e565b5b50565b8280546109b490611056565b90600052602060002090601f0160209004810192826109d65760008555610a1d565b82601f106109ef57805160ff1916838001178555610a1d565b82800160010185558215610a1d579182015b82811115610a1c578251825591602001919060010190610a01565b5b509050610a2a9190610a2e565b5090565b5b80821115610a47576000816000905550600101610a2f565b5090565b600081519050919050565b600082825260208201905092915050565b6000819050602082019050919050565b6000819050919050565b610a8a81610a77565b82525050565b600081519050919050565b600082825260208201905092915050565b60005b83811015610aca578082015181840152602081019050610aaf565b83811115610ad9576000848401525b50505050565b6000601f19601f8301169050919050565b6000610afb82610a90565b610b058185610a9b565b9350610b15818560208601610aac565b610b1e81610adf565b840191505092915050565b6000608083016000830151610b416000860182610a81565b5060208301518482036020860152610b598282610af0565b9150506040830151610b6e6040860182610a81565b5060608301518482036060860152610b868282610af0565b9150508091505092915050565b6000610b9f8383610b29565b905092915050565b6000602082019050919050565b6000610bbf82610a4b565b610bc98185610a56565b935083602082028501610bdb85610a67565b8060005b85811015610c175784840389528151610bf88582610b93565b9450610c0383610ba7565b925060208a01995050600181019050610bdf565b50829750879550505050505092915050565b60006020820190508181036000830152610c438184610bb4565b905092915050565b6000604051905090565b600080fd5b600080fd5b610c6881610a77565b8114610c7357600080fd5b50565b600081359050610c8581610c5f565b92915050565b600060208284031215610ca157610ca0610c55565b5b6000610caf84828501610c76565b91505092915050565b600080fd5b600080fd5b7f4e487b7100000000000000000000000000000000000000000000000000000000600052604160045260246000fd5b610cfa82610adf565b810181811067ffffffffffffffff82111715610d1957610d18610cc2565b5b80604052505050565b6000610d2c610c4b565b9050610d388282610cf1565b919050565b600067ffffffffffffffff821115610d5857610d57610cc2565b5b610d6182610adf565b9050602081019050919050565b82818337600083830152505050565b6000610d90610d8b84610d3d565b610d22565b905082815260208101848484011115610dac57610dab610cbd565b5b610db7848285610d6e565b509392505050565b600082601f830112610dd457610dd3610cb8565b5b8135610de4848260208601610d7d565b91505092915050565b60008060408385031215610e0457610e03610c55565b5b600083013567ffffffffffffffff811115610e2257610e21610c5a565b5b610e2e85828601610dbf565b925050602083013567ffffffffffffffff811115610e4f57610e4e610c5a565b5b610e5b85828601610dbf565b9150509250929050565b610e6e81610a77565b82525050565b6000602082019050610e896000830184610e65565b92915050565b600082825260208201905092915050565b6000610eab82610a90565b610eb58185610e8f565b9350610ec5818560208601610aac565b610ece81610adf565b840191505092915050565b6000608082019050610eee6000830187610e65565b8181036020830152610f008186610ea0565b9050610f0f6040830185610e65565b8181036060830152610f218184610ea0565b905095945050505050565b60008060408385031215610f4357610f42610c55565b5b6000610f5185828601610c76565b9250506020610f6285828601610c76565b9150509250929050565b60008115159050919050565b610f8181610f6c565b82525050565b6000602082019050610f9c6000830184610f78565b92915050565b7f4e487b7100000000000000000000000000000000000000000000000000000000600052601160045260246000fd5b6000610fdc82610a77565b9150610fe783610a77565b9250827fffffffffffffffffffffffffffffffffffffffffffffffffffffffffffffffff0382111561101c5761101b610fa2565b5b828201905092915050565b7f4e487b7100000000000000000000000000000000000000000000000000000000600052602260045260246000fd5b6000600282049050600182168061106e57607f821691505b6020821081141561108257611081611027565b5b50919050565b7f4e487b7100000000000000000000000000000000000000000000000000000000600052603260045260246000fd5b60006110c282610a77565b91507fffffffffffffffffffffffffffffffffffffffffffffffffffffffffffffffff8214156110f5576110f4610fa2565b5b60018201905091905056fea26469706673582212208da6847fe2d1c628dbe5b1a7ec4f3dbcde1eb3c7ba3ae39918054d4709be004e64736f6c634300080b003368747470733a2f2f6c617373656e636f666169722e66696c65732e776f726470726573732e636f6d2f323031362f30372f6d63646f6e616c64732d6c6f676f2e706e6768747470733a2f2f696d6167652e73696d696c6172706e672e636f6d2f766572792d7468756d626e61696c2f323032302f30362f6b66632d6c6f676f2d667265652d646f776e6c6f61642d504e472e706e6768747470733a2f2f6c6f676f77696b2e636f6d2f636f6e74656e742f75706c6f6164732f696d616765732f6275726765722d6b696e672d6e65772d32303231383338392e6a7067",
  "immutableReferences": {},
  "source": "// SPDX-License-Identifier: MIT\r\npragma solidity 0.8.11;\r\n\r\ncontract Election {\r\n    // Model a Candidate\r\n    struct Candidate {\r\n        uint256 id;\r\n        string name;\r\n        uint256 voteCount;\r\n        string image;\r\n    }\r\n\r\n    string private admin = \"Admin\";\r\n    string private password = \"0000\";\r\n\r\n\r\n    // Store accounts that have voted\r\n    mapping(uint256 => bool) public voters;\r\n    // Store Candidates\r\n    // Fetch Candidate\r\n    mapping(uint256 => Candidate) public candidates;\r\n    // Store Candidates Count\r\n    uint256 public candidatesCount;\r\n\r\n    // voted event\r\n    event votedEvent(uint256 indexed _candidateId);\r\n\r\n    constructor() {\r\n        addCandidate(\"McDonalds\", \"https://lassencofair.files.wordpress.com/2016/07/mcdonalds-logo.png\");\r\n        addCandidate(\"KFC\", \"https://image.similarpng.com/very-thumbnail/2020/06/kfc-logo-free-download-PNG.png\");\r\n        addCandidate(\"Burger King\", \"https://logowik.com/content/uploads/images/burger-king-new-20218389.jpg\");\r\n    }\r\n\r\n    function addCandidate(string memory _name, string memory _image) public {\r\n        candidatesCount++;\r\n        candidates[candidatesCount] = Candidate(candidatesCount, _name, 0, _image);\r\n    }\r\n\r\n    function isAdmin(string memory _admin, string memory _password) public view{\r\n        require(stringsEquals(_admin,admin) && stringsEquals(_password,password));\r\n    }\r\n\r\n    function stringsEquals(string memory s1, string memory s2) private pure returns (bool) {\r\n    bytes memory b1 = bytes(s1);\r\n    bytes memory b2 = bytes(s2);\r\n    uint256 l1 = b1.length;\r\n    if (l1 != b2.length) return false;\r\n    for (uint256 i=0; i<l1; i++) {\r\n        if (b1[i] != b2[i]) return false;\r\n    }\r\n    return true;\r\n}\r\n\r\n    function deleteCandidate(uint256 _id) public {\r\n        require(candidates[_id].voteCount == 0);\r\n        delete candidates[_id];\r\n    }\r\n\r\n    function vote(uint256 _candidateId, uint256 _voterId) public {\r\n        // require that they haven't voted before\r\n        require(!voters[_voterId]);\r\n\r\n        // require a valid candidate\r\n        require(_candidateId > 0 && _candidateId <= candidatesCount);\r\n\r\n        // record that voter has voted\r\n        voters[_voterId] = true;\r\n\r\n        // update candidate vote Count\r\n        candidates[_candidateId].voteCount++;\r\n\r\n        // trigger voted event\r\n        emit votedEvent(_candidateId);\r\n    }\r\n\r\n    function getCandidates() public view returns (Candidate[] memory) {\r\n        Candidate[] memory ret = new Candidate[](candidatesCount);\r\n        for (uint256 i = 0; i < candidatesCount; i++) {\r\n            ret[i] = candidates[i+1];\r\n        }\r\n        return ret;\r\n    }\r\n\r\n    function getCandidatesCount() public view returns (uint256) {\r\n        uint256 ret = candidatesCount;\r\n        return ret;\r\n    }\r\n}\r\n",
  "sourcePath": "E:\\Capstone\\e-voting-eth-vue2\\contracts\\Election.sol",
  "compiler": {
    "name": "solc",
    "version": "0.8.11+commit.d7f03943.Emscripten.clang"
  },
  "schemaVersion": "3.4.4",
  "updatedAt": "2022-01-19T12:19:05.080Z",
  "networkType": "ethereum",
  "devdoc": {
    "kind": "dev",
    "methods": {},
    "version": 1
  },
  "userdoc": {
    "kind": "user",
    "methods": {},
    "version": 1
  }
}