{
  "contractName": "Election",
  "abi": [
    {
      "inputs": [],
      "stateMutability": "nonpayable",
      "type": "constructor"
    },
    {
      "anonymous": false,
      "inputs": [
        {
          "indexed": true,
          "internalType": "uint256",
          "name": "_candidateId",
          "type": "uint256"
        }
      ],
      "name": "votedEvent",
      "type": "event"
    },
    {
      "inputs": [
        {
          "internalType": "uint256",
          "name": "",
          "type": "uint256"
        }
      ],
      "name": "candidates",
      "outputs": [
        {
          "internalType": "uint256",
          "name": "id",
          "type": "uint256"
        },
        {
          "internalType": "string",
          "name": "name",
          "type": "string"
        },
        {
          "internalType": "uint256",
          "name": "voteCount",
          "type": "uint256"
        },
        {
          "internalType": "string",
          "name": "image",
          "type": "string"
        }
      ],
      "stateMutability": "view",
      "type": "function",
      "constant": true
    },
    {
      "inputs": [],
      "name": "candidatesCount",
      "outputs": [
        {
          "internalType": "uint256",
          "name": "",
          "type": "uint256"
        }
      ],
      "stateMutability": "view",
      "type": "function",
      "constant": true
    },
    {
      "inputs": [
        {
          "internalType": "address",
          "name": "",
          "type": "address"
        }
      ],
      "name": "voters",
      "outputs": [
        {
          "internalType": "bool",
          "name": "",
          "type": "bool"
        }
      ],
      "stateMutability": "view",
      "type": "function",
      "constant": true
    },
    {
      "inputs": [
        {
          "internalType": "uint256",
          "name": "_candidateId",
          "type": "uint256"
        }
      ],
      "name": "vote",
      "outputs": [],
      "stateMutability": "nonpayable",
      "type": "function"
    },
    {
      "inputs": [],
      "name": "getCandidates",
      "outputs": [
        {
          "components": [
            {
              "internalType": "uint256",
              "name": "id",
              "type": "uint256"
            },
            {
              "internalType": "string",
              "name": "name",
              "type": "string"
            },
            {
              "internalType": "uint256",
              "name": "voteCount",
              "type": "uint256"
            },
            {
              "internalType": "string",
              "name": "image",
              "type": "string"
            }
          ],
          "internalType": "struct Election.Candidate[]",
          "name": "",
          "type": "tuple[]"
        }
      ],
      "stateMutability": "view",
      "type": "function",
      "constant": true
    },
    {
      "inputs": [],
      "name": "getCandidatesCount",
      "outputs": [
        {
          "internalType": "uint256",
          "name": "",
          "type": "uint256"
        }
      ],
      "stateMutability": "view",
      "type": "function",
      "constant": true
    }
  ],
  "bytecode": "0x60806040523480156200001157600080fd5b50620000726040518060400160405280600981526020017f4d63446f6e616c6473000000000000000000000000000000000000000000000081525060405180608001604052806043815260200162000e91604391396200013860201b60201c565b620000d26040518060400160405280600381526020017f4b4643000000000000000000000000000000000000000000000000000000000081525060405180608001604052806052815260200162000ed4605291396200013860201b60201c565b620001326040518060400160405280600b81526020017f427572676572204b696e6700000000000000000000000000000000000000000081525060405180608001604052806047815260200162000f26604791396200013860201b60201c565b62000380565b600260008154809291906200014d90620002cd565b9190505550604051806080016040528060025481526020018381526020016000815260200182815250600160006002548152602001908152602001600020600082015181600001556020820151816001019080519060200190620001b3929190620001e4565b50604082015181600201556060820151816003019080519060200190620001dc929190620001e4565b509050505050565b828054620001f2906200034a565b90600052602060002090601f01602090048101928262000216576000855562000262565b82601f106200023157805160ff191683800117855562000262565b8280016001018555821562000262579182015b828111156200026157825182559160200191906001019062000244565b5b50905062000271919062000275565b5090565b5b808211156200029057600081600090555060010162000276565b5090565b7f4e487b7100000000000000000000000000000000000000000000000000000000600052601160045260246000fd5b6000819050919050565b6000620002da82620002c3565b91507fffffffffffffffffffffffffffffffffffffffffffffffffffffffffffffffff82141562000310576200030f62000294565b5b600182019050919050565b7f4e487b7100000000000000000000000000000000000000000000000000000000600052602260045260246000fd5b600060028204905060018216806200036357607f821691505b602082108114156200037a57620003796200031b565b5b50919050565b610b0180620003906000396000f3fe608060405234801561001057600080fd5b50600436106100625760003560e01c80630121b93f1461006757806306a49fce146100835780632d35a8a2146100a15780633477ee2e146100bf578063a3ec138d146100f2578063bb9aa28f14610122575b600080fd5b610081600480360381019061007c9190610593565b610140565b005b61008b6101b7565b6040516100989190610794565b60405180910390f35b6100a96103bb565b6040516100b691906107c5565b60405180910390f35b6100d960048036038101906100d49190610593565b6103c1565b6040516100e9949392919061082a565b60405180910390f35b61010c600480360381019061010791906108db565b610501565b6040516101199190610923565b60405180910390f35b61012a610521565b60405161013791906107c5565b60405180910390f35b60008111801561015257506002548111155b61015b57600080fd5b6001600082815260200190815260200160002060020160008154809291906101829061096d565b9190505550807ffff3c900d938d21d0990d786e819f29b8d05c1ef587b462b939609625b684b1660405160405180910390a250565b6060600060025467ffffffffffffffff8111156101d7576101d66109b6565b5b60405190808252806020026020018201604052801561021057816020015b6101fd610530565b8152602001906001900390816101f55790505b50905060005b6002548110156103b3576001600060018361023191906109e5565b81526020019081526020016000206040518060800160405290816000820154815260200160018201805461026490610a6a565b80601f016020809104026020016040519081016040528092919081815260200182805461029090610a6a565b80156102dd5780601f106102b2576101008083540402835291602001916102dd565b820191906000526020600020905b8154815290600101906020018083116102c057829003601f168201915b505050505081526020016002820154815260200160038201805461030090610a6a565b80601f016020809104026020016040519081016040528092919081815260200182805461032c90610a6a565b80156103795780601f1061034e57610100808354040283529160200191610379565b820191906000526020600020905b81548152906001019060200180831161035c57829003601f168201915b50505050508152505082828151811061039557610394610a9c565b5b602002602001018190525080806103ab9061096d565b915050610216565b508091505090565b60025481565b60016020528060005260406000206000915090508060000154908060010180546103ea90610a6a565b80601f016020809104026020016040519081016040528092919081815260200182805461041690610a6a565b80156104635780601f1061043857610100808354040283529160200191610463565b820191906000526020600020905b81548152906001019060200180831161044657829003601f168201915b50505050509080600201549080600301805461047e90610a6a565b80601f01602080910402602001604051908101604052809291908181526020018280546104aa90610a6a565b80156104f75780601f106104cc576101008083540402835291602001916104f7565b820191906000526020600020905b8154815290600101906020018083116104da57829003601f168201915b5050505050905084565b60006020528060005260406000206000915054906101000a900460ff1681565b60008060025490508091505090565b6040518060800160405280600081526020016060815260200160008152602001606081525090565b600080fd5b6000819050919050565b6105708161055d565b811461057b57600080fd5b50565b60008135905061058d81610567565b92915050565b6000602082840312156105a9576105a8610558565b5b60006105b78482850161057e565b91505092915050565b600081519050919050565b600082825260208201905092915050565b6000819050602082019050919050565b6105f58161055d565b82525050565b600081519050919050565b600082825260208201905092915050565b60005b8381101561063557808201518184015260208101905061061a565b83811115610644576000848401525b50505050565b6000601f19601f8301169050919050565b6000610666826105fb565b6106708185610606565b9350610680818560208601610617565b6106898161064a565b840191505092915050565b60006080830160008301516106ac60008601826105ec565b50602083015184820360208601526106c4828261065b565b91505060408301516106d960408601826105ec565b50606083015184820360608601526106f1828261065b565b9150508091505092915050565b600061070a8383610694565b905092915050565b6000602082019050919050565b600061072a826105c0565b61073481856105cb565b935083602082028501610746856105dc565b8060005b85811015610782578484038952815161076385826106fe565b945061076e83610712565b925060208a0199505060018101905061074a565b50829750879550505050505092915050565b600060208201905081810360008301526107ae818461071f565b905092915050565b6107bf8161055d565b82525050565b60006020820190506107da60008301846107b6565b92915050565b600082825260208201905092915050565b60006107fc826105fb565b61080681856107e0565b9350610816818560208601610617565b61081f8161064a565b840191505092915050565b600060808201905061083f60008301876107b6565b818103602083015261085181866107f1565b905061086060408301856107b6565b818103606083015261087281846107f1565b905095945050505050565b600073ffffffffffffffffffffffffffffffffffffffff82169050919050565b60006108a88261087d565b9050919050565b6108b88161089d565b81146108c357600080fd5b50565b6000813590506108d5816108af565b92915050565b6000602082840312156108f1576108f0610558565b5b60006108ff848285016108c6565b91505092915050565b60008115159050919050565b61091d81610908565b82525050565b60006020820190506109386000830184610914565b92915050565b7f4e487b7100000000000000000000000000000000000000000000000000000000600052601160045260246000fd5b60006109788261055d565b91507fffffffffffffffffffffffffffffffffffffffffffffffffffffffffffffffff8214156109ab576109aa61093e565b5b600182019050919050565b7f4e487b7100000000000000000000000000000000000000000000000000000000600052604160045260246000fd5b60006109f08261055d565b91506109fb8361055d565b9250827fffffffffffffffffffffffffffffffffffffffffffffffffffffffffffffffff03821115610a3057610a2f61093e565b5b828201905092915050565b7f4e487b7100000000000000000000000000000000000000000000000000000000600052602260045260246000fd5b60006002820490506001821680610a8257607f821691505b60208210811415610a9657610a95610a3b565b5b50919050565b7f4e487b7100000000000000000000000000000000000000000000000000000000600052603260045260246000fdfea2646970667358221220a0cd808c592702eb80163d817aaa4fbc29e65878074fbc6fd2f6172114e538ed64736f6c634300080b003368747470733a2f2f6c617373656e636f666169722e66696c65732e776f726470726573732e636f6d2f323031362f30372f6d63646f6e616c64732d6c6f676f2e706e6768747470733a2f2f696d6167652e73696d696c6172706e672e636f6d2f766572792d7468756d626e61696c2f323032302f30362f6b66632d6c6f676f2d667265652d646f776e6c6f61642d504e472e706e6768747470733a2f2f6c6f676f77696b2e636f6d2f636f6e74656e742f75706c6f6164732f696d616765732f6275726765722d6b696e672d6e65772d32303231383338392e6a7067",
  "immutableReferences": {},
  "source": "// SPDX-License-Identifier: MIT\npragma solidity 0.8.11;\n\ncontract Election {\n    // Model a Candidate\n    struct Candidate {\n        uint256 id;\n        string name;\n        uint256 voteCount;\n        string image;\n    }\n\n    // Store accounts that have voted\n    mapping(address => bool) public voters;\n    // Store Candidates\n    // Fetch Candidate\n    mapping(uint256 => Candidate) public candidates;\n    // Store Candidates Count\n    uint256 public candidatesCount;\n\n    // voted event\n    event votedEvent(uint256 indexed _candidateId);\n\n    constructor() {\n        addCandidate(\"McDonalds\", \"https://lassencofair.files.wordpress.com/2016/07/mcdonalds-logo.png\");\n        addCandidate(\"KFC\", \"https://image.similarpng.com/very-thumbnail/2020/06/kfc-logo-free-download-PNG.png\");\n        addCandidate(\"Burger King\", \"https://logowik.com/content/uploads/images/burger-king-new-20218389.jpg\");\n    }\n\n    function addCandidate(string memory _name, string memory _image) private {\n        candidatesCount++;\n        candidates[candidatesCount] = Candidate(candidatesCount, _name, 0, _image);\n    }\n\n    function vote(uint256 _candidateId) public {\n        // require that they haven't voted before\n        // require(!voters[msg.sender]);\n\n        // require a valid candidate\n        require(_candidateId > 0 && _candidateId <= candidatesCount);\n\n        // record that voter has voted\n        // voters[msg.sender] = true;\n\n        // update candidate vote Count\n        candidates[_candidateId].voteCount++;\n\n        // trigger voted event\n        emit votedEvent(_candidateId);\n    }\n\n    function getCandidates() public view returns (Candidate[] memory) {\n        Candidate[] memory ret = new Candidate[](candidatesCount);\n        for (uint256 i = 0; i < candidatesCount; i++) {\n            ret[i] = candidates[i+1];\n        }\n        return ret;\n    }\n\n    function getCandidatesCount() public view returns (uint256) {\n        uint256 ret = candidatesCount;\n        return ret;\n    }\n}\n",
  "sourcePath": "E:\\Capstone\\e-voting-eth-vue2\\contracts\\Election.sol",
  "compiler": {
    "name": "solc",
    "version": "0.8.11+commit.d7f03943.Emscripten.clang"
  },
  "schemaVersion": "3.4.4",
  "updatedAt": "2021-12-22T10:50:50.198Z",
  "networkType": "ethereum",
  "devdoc": {
    "kind": "dev",
    "methods": {},
    "version": 1
  },
  "userdoc": {
    "kind": "user",
    "methods": {},
    "version": 1
  }
}